:02000002D0002C
:1040000000400D0054510D00000006000C00050199
:084010000401BD0B00000000DB
:04401800084F0D0040
:10401C0009480A49884208B505D0094A824202D0AB
:10402C00121A00F029FF0748074A0021121A00F063
:10403C0031FF014808BD00BFCCE50320C4500D0082
:10404C0034E6032034E60320F0E7032070B5074E76
:10405C00074C00F07BFBA41BA4080025A54200D153
:10406C0070BD56F8043B98470135F7E790500D00AA
:10407C00B4500D0000F01BB808B500F01CF8BDE8FA
:10408C00084000F025BB00F0E3B900F0E9B9007876
:10409C00B0FA80F04009704701230370704710B5E7
:1040AC000446006808B100F0DBF9204610BD012180
:1040BC00052000F05FBE08B50121052000F06BFE65
:1040CC004FF47A7000F0CAFA0520002100F063FE6C
:1040DC00BDE808404FF47A7000F0C0BA38B50A4C0D
:1040EC000A4BA360002503202560A580A57100F074
:1040FC001BF90749074A204600F0A6FE2946012075
:10410C00BDE8384000F020B938E603200000FFFF7E
:10411C00AB400D0034E6032008B5024B1B689B68CE
:10412C00019308BD6802030008B5024B1B68DB68ED
:10413C00019308BD6802030008B5024B1B689B681D
:10414C00019308BD2C02030008B5024B1B68DB6809
:10415C00019308BD2C02030008B5024B1B681B69B8
:10416C00019308BD2C02030008B5024B1B685B6869
:10417C00019308BD1802030008B5024B1B685B696C
:10418C00019308BD1802030008B5024B1B685B6C59
:10419C00019308BD4802030008B5024B1B689B6CD9
:1041AC00019308BD4802030008B5024B1B685B690C
:1041BC00019308BD6402030008B5024B1B681B6821
:1041CC00019308BD3C02030008B5024B1B68DB6879
:1041DC00019308BD3C02030008B5024B1B681B6928
:1041EC00019308BD3C02030008B5024B1B685B69D8
:1041FC00019308BD3C02030008B5024B1B689B6988
:10420C00019308BD3C02030008B5024B1B68DB6937
:10421C00019308BD3C02030008B5024B1B681B6AE6
:10422C00019308BD3C02030008B5024B1B689B6A56
:10423C00019308BD3C02030008B5024B1B681B6AC6
:10424C00019308BD2802030008B5024B1B685B6A8A
:10425C00019308BD2802030008B5024B1B689B6A3A
:10426C00019308BD2802030008B5024B1B68DB6AEA
:10427C00019308BD2802030008B5024B1B681B6B99
:10428C00019308BD2802030008B5024B1B685B6B49
:10429C00019308BD2802030008B5024B1B681B6C78
:1042AC00019308BD2802030008B5024B1B68DB69AB
:1042BC00019308BD3002030008B5024B1B681B6A52
:1042CC00019308BD3002030008B5024B1B681B6844
:1042DC00019308BD4C02030008B5024B1B681B6917
:1042EC00019308BD4C02030008B5024B1B685B69C7
:1042FC00019308BD4C02030008B5024B1B689B6977
:10430C00019308BD4C02030008B5024B1B68DB6926
:10431C00019308BD4C02030008B5024B1B681B6AD5
:10432C00019308BD4C02030008B5024B1B685B6887
:10433C00019308BD2002030008B5024B1B685B69A2
:10434C00019308BD2002030008B5024B1B68DB6A11
:10435C00019308BD2002030008B5034B1B68D3F87A
:10436C008830019308BD00002002030008B5034B00
:10437C001B68D3F89430019308BD000020020300A1
:10438C0008B5024B1B685B68019308BD4002030033
:10439C0008B5024B1B689B68019308BD40020300E3
:1043AC0008B5024B1B68DB68019308BD4002030093
:1043BC0008B5024B1B681B69019308BD4002030042
:1043CC0008B5024B1B685B69019308BD40020300F2
:1043DC0008B5024B1B689B69019308BD40020300A2
:1043EC0008B5024B1B68DB69019308BD4002030052
:1043FC0008B5024B1B681B6A019308BD4002030001
:10440C0008B5024B1B681B6B019308BD40020300EF
:10441C0008B5024B1B685B6B019308BD400203009F
:10442C0008B5024B1B681B6C019308BD40020300CE
:10443C0008B5024B1B685B6C019308BD400203007E
:10444C0008B5024B1B68DB6B019308BD44020300EB
:10445C0008B5024B1B681B68019308BD1C020300C6
:10446C0008B5024B1B685B68019308BD1C02030076
:10447C0008B5024B1B685B6C019308BD1C02030062
:10448C00002240681146FFF7B3BF00224068114676
:10449C00FFF7BEBF40680022FFF7B2BF40680022A2
:1044AC0081F00101FFF79CBF002340681A461946B2
:1044BC00FFF78EBF002340681A461946FFF780BFEE
:1044CC00002240681146FFF773BF00224068114676
:1044DC00FFF75EBF406800220221FFF761BF002397
:1044EC0040681A46FFF74CBF024B03225A60024A3F
:1044FC001A60704744E60320244F0D0010B50446A3
:10450C0008462170FFF7D0FE00236360204610BDE3
:10451C0010B5094B094C022200201A60084B206090
:10452C00A080A071A360FFF7FFFE2046054A064954
:10453C00BDE8104000F088BC58E603204CE6032090
:10454C000000FFFF34E60320AB400D0010B504461D
:10455C00006808B1FFF720FE204610BD10B5836837
:10456C00044613B1032201469847204610BD0000B3
:10457C0010B5064C002320462360FFF705FE2046AD
:10458C00034A0449BDE8104000F05EBC5CE6032021
:10459C0034E6032059450D00F8B506460D468F1834
:1045AC000024BD420CD0336815F8011B9B683046C3
:1045BC009847031E01DB1C44F3E7002C08BF1C4684
:1045CC002046F8BD13B50446084659B1019100F0D8
:1045DC008DFC23680199DB680246204602B0BDE8D9
:1045EC001040184702B010BD03689B68184730B5DF
:1045FC008BB000238DF82430012A98BF0A2209AC15
:10460C000D46B1FBF2F101FB125303F0FF03092B32
:10461C0094BF30333733DBB2AA4204F8013DEFD9F3
:10462C002146FFF7CFFF0BB030BD002340681A4680
:10463C001946FFF7C5BE0000014B024A1A607047CD
:10464C0060E60320584F0D00024B1A68024B1A60AB
:10465C00704700BFCCE5032064E603200021FFF780
:10466C006BBE10B50446FFF779FF204610BD000065
:10467C000348044A04490023836000F0E5BB00BFF3
:10468C0068E6032034E603206F460D00014B1860EA
:10469C00704700BFD0E5032008B50B4B43B100F0C9
:1046AC0057F903681B699847002801DDAFF30080B8
:1046BC00064B43B100F0CAF903681B699847002800
:1046CC0001DDAFF3008008BD000000000000000019
:1046DC0008B5FFF7E1FFFFF74FFD014B186008BD70
:1046EC00D4E703200248034A0349121A00F0C4BB62
:1046FC0000F4032004F40320C0500D0007B5002380
:10470C0000931A466FF07701FFF730FE03B05DF8A7
:10471C0004FB000007B543880A2B08D0502B0BD1A3
:10472C00094B1B684BB103B05DF804EB1847FFF75E
:10473C00E5FF03B05DF804FB002300931A466FF00D
:10474C007701FFF713FEF4E77CE6032038B5124C33
:10475C001248134D0021FFF78BFE2368AB42114B1F
:10476C000CBF012200221A7002D0FFF7BBFF25609C
:10477C00FFF7FAFC044600F095FB0B4B13B12046F7
:10478C00AFF3008000210848FFF75AFEBDE838401F
:10479C0006480021FFF7E0BD00F4032099460D0008
:1047AC001E1C279A78E603200000000021470D000C
:1047BC00704710B51821044600F04BFB204610BD85
:1047CC00F0B5037D062B8DB00E4600F104074FF0BB
:1047DC00000412D000F1080515F8011D0A2230461C
:1047EC00FFF705FFAF42044419D0002CF4D02E2162
:1047FC003046FFF7F9FE0444EEE72F236A463946AC
:10480C000A208DF80040FFF7CFFC684600F06EFBE5
:10481C0033680246DB6869463046984704462046B2
:10482C000DB0F0BD10B5054B0446112240F8043B09
:10483C00002100F02FFB204610BD00BF804F0D0063
:10484C000346074A10B543F8042B01F1100251F846
:10485C00044B43F8044B9142F9D10A781A7010BDFD
:10486C00804F0D0010B59DF8084044EA032343EA3D
:10487C00024242EA016104234160037510BD00004D
:10488C0013B5054B0360CB7800938B784A78097885
:10489C00FFF7E8FF02B010BD804F0D004174704768
:1048AC00704708B50021007CFFF726FD40EAE07058
:1048BC0008BD08B50121007CFFF71EFD40EAE07041
:1048CC0008BD08B5007CFFF70FFD20EAE07008BDBD
:1048DC0008B5007CFFF700FD20EAE07008BD13B5B9
:1048EC000446007C0191FFF7FFFC0028019901DCD4
:1048FC00607C20B1207CFFF707FD20EAE07002B05D
:10490C0010BD007CFFF708BD10B51421044600F063
:10491C00A0FA204610BD000010B54FF47A7304467F
:10492C0008460021C4E90113044B236001232074C1
:10493C0063741146FFF7C8FC204610BD944F0D0060
:10494C0010B514220446002100F0A4FA204610BD34
:10495C0010B5104C88B003A8FFF7F2FF2178BFF315
:10496C005B8F11F0010111D120460191FFF78FFBF4
:10497C00019958B103AA0848FFF7CEFF2046FFF76C
:10498C008BFB064A0649044800F05EFA024808B060
:10499C0010BD00BF80E6032084E6032034E603202C
:1049AC00AD480D0070474174704708B5007CFFF7A7
:1049BC003BFC20EAE07008BD08B5007CFFF70CFC5E
:1049CC0020EAE07008BD08B5007CFFF715FC40EA52
:1049DC00E07008BD08B5007CFFF706FC40EAE0700B
:1049EC0008BD007CFFF710BC37B5457C04462DB1E3
:1049FC00207C03B0BDE83040FFF7E6BB007C0191A2
:104A0C00FFF712FC00280199F2DC284603B030BDF8
:104A1C0010B51421044600F01CFA204610BD00000D
:104A2C0010B54FF0000C0446084611464FF47A724C
:104A3C00C4E901C2044A22600122207462741A463D
:104A4C00FFF7BAFB204610BDC44F0D0013B50E4C3A
:104A5C002178BFF35B8F11F0010112D12046019137
:104A6C00FFF715FB019960B1084A094B0948FFF79C
:104A7C00D7FF2046FFF710FB074A0849054800F00E
:104A8C00E3F9044802B010BD98E603209CE603202D
:104A9C0020E70320A4E7032034E60320B1490D00EE
:104AAC007047F8B5064615460C468F18BC4206D022
:104ABC00336814F8011B9B6830469847F6E7284684
:104ACC00F8BD007C0022FFF7B7BB007C0021FFF78C
:104ADC00BBBB007C0021FFF7BFBB007C0021FFF7B4
:104AEC00C3BB007C0021FFF7C7BB10B514210446E3
:104AFC0000F0AFF9204610BD10B54FF47A730446A0
:104B0C0008460021C4E90113034B236020741146AD
:104B1C00FFF7C2FB204610BDF44F0D000022406889
:104B2C001146FFF745BC002240681146FFF760BCF8
:104B3C00002240681146FFF76BBC40680022FFF76B
:104B4C005FBC4068002281F00101FFF749BC0023E3
:104B5C0040681A461946FFF73BBC002240681146D4
:104B6C00FFF716BC406800220221FFF719BC002396
:104B7C0040681A46FFF704BC024B04225A60024AF2
:104B8C001A607047B8E703201C500D0000234068E2
:104B9C001A46FFF7F5BB406800220221FFF700BC64
:104BAC00002240681146FFF7F3BB00224068114613
:104BBC00FFF7FEBB002340681A461946FFF700BCFE
:104BCC00002340681A461946FFF702BC40680021D2
:104BDC00FFF726BC40680021FFF72ABC4068002282
:104BEC0081F00101FFF7FCBB40680022FFF708BC15
:104BFC00002240681146FFF70BBC002240681146AA
:104C0C00FFF7F6BB2DE9F043002495B016460D4690
:104C1C000746FFF707FE214618220EA8009400F065
:104C2C0039F94023CDE90C3421466B460CAA3046A9
:104C3C00FFF77AFA044600284CD102460121686835
:104C4C00FFF7B6FB0221804622466868FFF7B0FBEF
:104C5C00009E81462146002E3CD000293AD1736833
:104C6C00022B03D00A2B11D0F669F4E7B8F1000F30
:104C7C000AD0716906A8043107ADFFF701FE0FCD0C
:104C8C003C1D0FC42B6823704146EDE7B9F1000FB2
:104C9C0001D14946E8E77469102201A800F0FAF83E
:104CAC0006238DF8143001AD04F10803183418688C
:104CBC0059682A4603C20833A3421546F7D101A905
:104CCC0006A807ADFFF7BCFD0FCD3C1D0FC42B682C
:104CDC002370DEE70098FFF71FFA384615B0BDE8E1
:104CEC00F0830000024B034A1A6000225A6070479E
:104CFC00C0E7032058500D00232813B502D900201B
:104D0C0002B010BDA0F10B03022B1AD8174C21785E
:104D1C00BFF35B8F11F001010BD120460191FFF71E
:104D2C00B6F9019928B11248FFF7E8FB2046FFF7C6
:104D3C00B3F90F4B1878FFF7BFFA0028DFD1012029
:104D4C00DEE7012809D800F057F80021007CFFF7B6
:104D5C009BFA80F00100C0B2D2E709380128EED8E6
:104D6C00FFF774FE007CFFF757FAF2E7C8E7032061
:104D7C00CCE70320232838B504460D460AD8FF2972
:104D8C0008D0FFF7B9FF28B129462046BDE83840C6
:104D9C00FFF7D2B938BD38B504460D46FFF7D4F944
:104DAC00FF2810D0062804D84D2323FA00F0C3079F
:104DBC0009D42046FFF7A0FF28B129462046BDE8BC
:104DCC003840FFF7C9B938BD38B5002320254380DA
:104DDC00142304460380856005610649284600F0CB
:104DEC003AF804496060284600F035F8E060204647
:104DFC0038BD00BF8C500D0030B50F4D2978BFF376
:104E0C005B8F11F0010487B013D12846FFF73FF9EF
:104E1C0078B101A8FFF7D8FF01AA21460748FFF790
:104E2C006BFE2846FFF738F9054A0649034800F09F
:104E3C000BF8024807B030BDD8E70320DCE70320AD
:104E4C0034E60320AD4A0D000B460146184600F02F
:104E5C0005B8FFF71AB9FFF716B9000010B5054CE5
:104E6C0013462CB10A4601460220AFF3008010BD58
:104E7C002046FCE7000000000A44914200F1FF3399
:104E8C0000D1704710B511F8014B03F8014F914256
:104E9C00F9D110BD02440346934200D1704703F888
:104EAC00011BF9E738B50D4B1D68AB6B04467BB99C
:104EBC001820FFF7CDFA0A4A0A4BA863C0E9002371
:104ECC00094B83600B23838101220023C0E9042357
:104EDC00AB6B00221C615A6138BD00BFD0E50320CA
:104EEC000E33CDAB34126DE6ECDE0500034613F841
:104EFC00012B002AFBD1181A013870471D400D00F8
:104F0C0059400D0081400D0085400D00000000004F
:104F1C000000000000000000EB440D00E1440D0017
:104F2C00D7440D00CD440D00C1440D00B5440D0017
:104F3C00D94B0D00E14B0D00A9440D00A1440D000F
:104F4C0097440D008D440D00114C0D0061707000E4
:104F5C0025592D256D2D25645425483A254D3A2586
:104F6C0053257A0061736374696D6500000000005D
:104F7C0000000000CD470D00BD470D00BF470D00E0
:104F8C000000000000000000AD480D0015490D00A8
:104F9C00EB480D00A5450D00DD480D00AF480D0098
:104FAC00BF480D000F490D00CF480D00A9480D005A
:104FBC000000000000000000B1490D001D4A0D006A
:104FCC00F5490D00A5450D00C5490D00E1490D0041
:104FDC00D3490D00EF490D00B3490D00B7490D0041
:104FEC000000000000000000AD4A0D00F74A0D0063
:104FFC00CF4A0D00AF4A0D00D74A0D00DF4A0D0015
:10500C00E74A0D00EF4A0D00000000000000000010
:10501C007B4B0D00714B0D00674B0D00294B0D00A8
:10502C0037460D005B4B0D00D94B0D00E14B0D00CD
:10503C004F4B0D00474B0D003D4B0D00334B0D00FE
:10504C00114C0D000000000000000000994B0D00F9
:10505C00A34B0D00AD4B0D00B74B0D00C14B0D001C
:10506C00CD4B0D00D94B0D00E14B0D00E94B0D0064
:10507C00F54B0D00FD4B0D00074C0D00114C0D00B8
:10508C0000000000E9400D00F5440D001D450D0029
:10509C007D450D0045460D0055460D007D460D0025
:1050AC00854B0D00F14C0D000000000000000000CD
:0450BC0000000000F0
:0450C00000000000EC
:1050C400704F0D00D4E50320000000000000000034
:1050D40000000000000000000000000000000000CC
:1050E40000000000000000000000000000000000BC
:1050F40000000000000000000000000000000000AC
:10510400000000000000000000000000000000009B
:10511400000000000000000000000000000000008B
:08512400000000000000000083
:10512C00FFFFFFFF00000102030405060708090A40
:10513C000B0C0D0E0F101112131415161718191A3B
:08514C001B1C1D1E1F20280082
:045154007856341243
:04000003D000401CCD
:00000001FF
